:100000000C94E70C0C942E0D0C942E0D0C94DC2CFF
:100010000C942E0D0C942E0D0C942E0D0C942E0D74
:100020000C942E0D0C942E0D0C947A1B0C94361BF4
:100030000C9425270C942E0D0C942E0D0C942E0D43
:100040000C942E0D0C942E0D0C942E0D0C942E0D44
:100050000C942E0D0C94511C0C942E0D0C942E0D02
:100060000C942E0D0C942E0D0C942E0D0C942E0D24
:100070000C942E0D0C942E0D0C942E0D0C942E0D14
:100080000C942E0D0C942E0D0C942E0D0C942E0D04
:100090000C942E0D0C942E0D0C942E0D0C942E0DF4
:1000A0000C942E0D0C942E0D0C942E0D00000000BF
:1000B0000000000000000000000000000000000040
:1000C0000000000000000000000000000000000030
:1000D0000000000000000000000000000000000020
:1000E0000000000000000000000000000000808010
:1000F00080404020201008040204081010202040F6
:1001000040808000000000000000000000000000AF
:1001100000000000000000000000000000000000DF
:1001200000000000000000000000000000000000CF
:1001300000000000000000000000000000000000BF
:1001400000000000000000000000000000000000AF
:100150000000000000000000000000000000003F60
:10016000C1010102020404040402020101010000B1
:10017000000000008000004080804000003030001F
:10018000000000010264180412C2CA2488F08080B2
:10019000404040402020202010101010080808087F
:1001A0000404040402020202010101010000000033
:1001B000000000000000000000000000000000003F
:1001C000000000000000000000000000000000002F
:1001D0000000000000000000000000000000E01827
:1001E0000601000000000000000000000080838382
:1001F000404040402021212010101010080808081D
:1002000004040404020202020101010100000000D2
:1002100000000000000000000000000000000000DE
:1002200000000000000000000000000000000000CE
:1002300000000000000000000000000000000000BE
:1002400000000000000000000000000080808080AE
:10025000404040402020202010101010080F0808B7
:1002600004040404020408101020204040414224E9
:1002700098C088888C9C1C1E0E06000000000000A0
:10028000000000000000000000000000000000006E
:10029000000000000000000000000000000000005E
:1002A000000000000000000000000000000000004E
:1002B000000000000000000000000000000000003E
:1002C000000000000000000000000000000000002E
:1002D000000000000000000000000000000000001E
:1002E000000000000000000000000000000000000E
:1002F00000000000000000000000000000000000FE
:1003000000000000000000000000000000000000ED
:1003100000000000000000000000000000000000DD
:1003200000000000000000000000000000000000CD
:1003300000000000000000000000000000000000BD
:1003400000000000000000000000000000000000AD
:10035000000000000000000000000000000000009D
:10036000000000000000000000008080804040206D
:100370002010080402040810102020404080800053
:10038000000000000000000000000000000000006D
:10039000000000000000000000000000000000005D
:1003A000000000000000000000000000000000004D
:1003B000000000000000000000000000000000003D
:1003C000000000000000000000000000000000002D
:1003D00000000000000000000000003FC101010219
:1003E0000204844444428201010100000000000034
:1003F000800000408080400000303000000000019C
:100400000204040808102040808080804040404062
:1004100020202020101010100808080804040404EC
:1004200002020202010101010000000000000000C0
:1004300000000000000000000000000000000000BC
:1004400000000000000000000000000000000000AC
:1004500000000000000000000000E018060100009D
:100460000C03000218190005FE80838340404040C1
:10047000202121201010101008080808040404048A
:100480000408304080800000018698600000000071
:10049000000000000000000000000000000000005C
:1004A000000000000000000000000000000000004C
:1004B000000000000000000000000000000000003C
:1004C000000000000000000080808080404040402C
:1004D0002020202010101010080F08080404040425
:1004E0000202020201010101000000000000000000
:1004F0000000000000000000000000060F0F0703CE
:100500000361F0F8FC600101013C78F8F070000034
:1005100000000000000000000000000000000000DB
:1005200000000000000000000000000000000000CB
:1005300000000000000000000000000000000000BB
:1005400000000000000000000000000000000000AB
:10055000000000000000000000000000000000009B
:10056000000000000000000000000000000000008B
:10057000000000000000000000000000000000007B
:10058000000000000000000000000000000000006B
:10059000000000000000000000000000000000005B
:1005A000000000000000000000000000000000004B
:1005B000000000000000000000000000000000003B
:1005C000000000000000000000000000000000002B
:1005D000000000000000000000000000000000001B
:1005E000000000808040404020202020201804028D
:1005F000010204081020204040808000000000001C
:1006000000000000000000000000000000000000EA
:1006100000000000000000000000000000000000DA
:1006200000000000000000000000000000000000CA
:1006300000000000000000000000000000000000BA
:1006400000000000000000000000000000000000AA
:10065000000000000000003FC10101020204040488
:1006600004020201000000000000000080000040C1
:1006700080804000003030000000000102040408C7
:100680000810204080808080404040402020202072
:1006900010101010080808080404040402020202E2
:1006A0000101010100000000000000000000000046
:1006B000000000000000000000000000000000003A
:1006C000000000000000000000000000000000002A
:1006D000000000000000E01806010000000000001B
:1006E0000000000000808383404040402021212002
:1006F000101010100808080804040404040830400E
:10070000808000000186986000000000000000006A
:1007100000000000000000000000000000000000D9
:1007200000000000000000000000000000000000C9
:1007300000000000000000000000000000000000B9
:100740000000000080808080404040402020202029
:1007500010101010080F0808040404040204081004
:1007600010202040404142241800000000000000FA
:100770000000000000000000000000000000000079
:100780000000010101000000000000000000000066
:100790000000000000000000000000000000000059
:1007A0000000000000000000000000000000000049
:1007B0000000000000000000000000000000000039
:1007C0000000000000000000000000000000000029
:1007D0000000000000000000000000000000000019
:1007E0000000000000000000000000000000000009
:1007F00000000000000000000000000000000000F9
:1008000000000000000000000000000000000000E8
:1008100000000000000000000000000000000000D8
:1008200000000000000000000000000000000000C8
:1008300000000000000000000000000000000000B8
:1008400000000000000000000000000000000000A8
:100850000000000000000000000000000000000098
:10086000000080804040402010080402010204087B
:100870001020408080000000000000000000000008
:100880000000000000000000000000000000000068
:100890000000000000000000000000000000000058
:1008A0000000000000000000000000000000000048
:1008B0000000000000000000000000000000000038
:1008C0000000000000000000000000000000000028
:1008D0000000003FC10101020204040404020201FD
:1008E0000101000000000000000000800000800006
:1008F000006060000001020404080810102020407D
:100900008080808040404040202020201010101027
:10091000080808080404040402020202010101019B
:1009200000000000000000000000000000000000C7
:1009300000000000000000000000000000000000B7
:1009400000000000000000000000000000000000A7
:100950000000C0300C030000000000000000000098
:100960000080868640404040212222201111101034
:1009700008080808040404040408304080800000CB
:1009800001869860000000000000000000000000E8
:100990000000000000000000000000000000000057
:1009A0000000000000000000000000000000000047
:1009B0000000000000000000000000000000000037
:1009C0008080808040404040202020201010101067
:1009D000080F080804040404020408101020204032
:1009E0004041422418000000000000000000000008
:1009F00000000000000000000000000000000101F5
:100A000001000000000000000000000000000000E5
:100A100000000000000000000000000000000000D6
:100A200000000000000000000000000000000000C6
:100A300000000000000000000000000000000000B6
:100A400000000000000000000000000000000000A6
:100A50000000000000000000000000000000000096
:100A60000000000000000000000000000000000086
:100A70000000000000000000000000000000000076
:100A80000000000000000000000000000000000066
:100A90000000000000000000000000000000000056
:100AA0000000000000000000000000000000000046
:100AB0000000000000000000000000000000000036
:100AC0000000000000000000000000000000000026
:100AD0000000000000000000000000000000808016
:100AE00080804040201008040204081020408080CC
:100AF00000000000000000000000000000000000F6
:100B000000000000000000000000000000000000E5
:100B100000000000000000000000000000000000D5
:100B200000000000000000000000000000000000C5
:100B300000000000000000000000000000000000B5
:100B40000000000000000000000000000000007E27
:100B500082020204040808080804040201010000DB
:100B600000000000000000800000800000606000C5
:100B700001010204040808101020204080808080B9
:100B80004040404020202020101010100808080885
:100B90000404040402020202010101010000000039
:100BA0000000000000000000000000000000000045
:100BB0000000000000000000000000000000000035
:100BC0000000000000000000000000000000C03035
:100BD0000C0300000000000000000000008086867A
:100BE000404040402122222011111010080808081E
:100BF00004040404040830408080000001869860EA
:100C000000000000000000000000000000000000E4
:100C100000000000000000000000000000000000D4
:100C200000000000000000000000000000000000C4
:100C300000000000000000000000000080808080B4
:100C4000404040402020202010101010080F0808BD
:100C500004040404020408101020204040414224EF
:100C6000180000000000000000000000000000006C
:100C70000000000000000000000001010100000071
:100C80000000000000000000000000000000000064
:100C90000000000000000000000000000000000054
:100CA0000000000000000000000000000000000044
:100CB0000000000000000000000000000000000034
:100CC0000000000000000000000000000000000024
:100CD0000000000000000000000000000000000014
:100CE0000000000000000000000000000000000004
:100CF00000000000000000000000000000000000F4
:100D000000000000000000000000000000000000E3
:100D100000000000000000000000000000000000D3
:100D200000000000000000000000000000000000C3
:100D300000000000000000000000000000000000B3
:100D400000000000000000000000000000000000A3
:100D50000000000000000000000080808080404013
:100D600020100804020408102040808000000000C9
:100D70000000000000000000000000000000000073
:100D80000000000000000000000000000000000063
:100D90000000000000000000000000000000000053
:100DA0000000000000000000000000000000000043
:100DB0000000000000000000000000000000000033
:100DC000000000000000000000001C34C404040403
:100DD00008080808080404020101000000000000DF
:100DE000800000408080400000303000010102029D
:100DF0000404040808102040808080804040404067
:100E000020202020101010100808080804040404F2
:100E100002020202010101010000000000000000C6
:100E200000000000000000000000000000000000C2
:100E300000000000000000000000000000000000B2
:100E400000000000000000000000E01806010000A3
:100E5000000000000000000000808383404040400C
:100E60002021212010101010080808080404040490
:100E70000408304080800000018698600000000077
:100E80000000000000000000000000000000000062
:100E90000000000000000000000000000000000052
:100EA0000000000000000000000000000000000042
:100EB0000000000000000000808080804040404032
:100EC0002020202010101010080F0808040404042B
:100ED0000204081010202040404142241800000065
:100EE0000000000000000000000000000000000002
:100EF00000000000000001010100000000000000EF
:100F000000000000000000000000000000000000E1
:100F100000000000000000000000000000000000D1
:100F200000000000000000000000000000000000C1
:100F300000000000000000000000000000000000B1
:100F400000000000000000000000000000000000A1
:100F50000000000000000000000000000000000091
:100F60000000000000000000000000000000000081
:100F70000000000000000000000000000000000071
:100F80000000000000000000000000000000000061
:100F90000000000000000000000000000000000051
:100FA0000000000000000000000000000000000041
:100FB0000000000000000000000000000000000031
:100FC0000000000000000000000000000000000021
:100FD0000000008080404040202020202018040293
:100FE0000102040810202040408080000000000022
:100FF00000000000000000000000000000000000F1
:1010000000000000000000000000000000000000E0
:1010100000000000000000000000000000000000D0
:1010200000000000000000000000000000000000C0
:1010300000000000000000000000000000000000B0
:101040000000000000060D31C1010101020202048E
:1010500004020201000000000000000080000040C7
:1010600080804000003030000000000102040408CD
:101070000810204080808080404040402020202078
:1010800010101010080808080404040402020202E8
:10109000010101010000000000000000000000004C
:1010A0000000000000000000000000000000000040
:1010B0000000000000000000000000000000000030
:1010C000000000000000E018060100000000000021
:1010D0000000000000808383404040402021212008
:1010E0001010101008080808040404040408304014
:1010F0008080000001869860000000000000000071
:1011000000000000000000000000000000000000DF
:1011100000000000000000000000000000000000CF
:1011200000000000000000000000000000000000BF
:10113000000000008080808040404040202020202F
:1011400010101010080F080804040404020408100A
:101150001020204040414224180000000000000000
:10116000000000000000000000000000000000007F
:10117000000001010100000000000000000000006C
:10118000000000000000000000000000000000005F
:10119000000000000000000000000000000000004F
:1011A000000000000000000000000000000000003F
:1011B000000000000000000000000000000000002F
:1011C000000000000000000000000000000000001F
:1011D000000000000000000000000000000000000F
:1011E00000000000000000000000000000000000FF
:1011F00000000000000000000000000000000000EF
:1012000000000000000000000000000000000000DE
:10121000165C1E001F002000210022002B0014007D
:101220001A00080015001700E1000400160007006E
:1012300009000A00E0001D001B000600190005005F
:101240000000E300F65C01512C002F002A0027006B
:1012500026002500240023003400130012000C0097
:1012600018001C00280033000F000E000D000B00BA
:101270003100380037003600100011000000E40093
:10128000F75C02512C003000010001000100010058
:101290000100010001003500000000000000000016
:1012A0000100BE00BD00AC00AB0000000100AA00C0
:1012B000A900A800AD002602000001000100010005
:1012C0000100000001000100010001000100010017
:1012D000000000000000000000000000000000000E
:1012E0004F0052005100500031004C0000002D0012
:1012F0002E00270200000100010000000100000094
:1013000001003A003B003C003D003E0001000000AF
:1013100000000000000000000100000000000000CC
:1013200000000000010000000000000000000000BC
:101330000000010001000100010000000100430065
:101340004200410040003F00450044000000000012
:1013500000000000010000004F005200510050004A
:10136000000000000000000000000000000001007C
:10137000010001000100000000DA0281FFD9F1DB69
:1013800020A4A62EAF00A0C000A1C800AED580A8A2
:101390001FD300408D14200020202020202020007A
:1013A000434150530000AF00AE05010980A1018503
:1013B0000319012AB700150126B7009501751081A0
:1013C00000C0050C0901A101850419012AA002151C
:1013D0000126A002950175108100C005010906A132
:1013E00001050719E029E715002501950875018118
:1013F000029501750881010507190029FF150026CE
:10140000FF00950675088100050819012905950555
:1014100075019102950175039101C009023B00021B
:101420000100A0FA090400000103010100092111D3
:101430000100012240000705810308000A09040198
:101440000001030000000921110100012232000700
:1014500005820320000A1201000200000008D804DF
:101460002DEB0001010200010E034C0069006C002D
:10147000790035003800000010036C0069006C0032
:10148000690075006D00730000000403090400008A
:10149000000000003E5B4F5B3E003E6B4F6B3E002A
:1014A0001C3E7C3E1C00183C7E3C18001C577D579F
:1014B0001C001C5E7F5E1C0000183C180000FFE74B
:1014C000C3E7FF00001824180000FFE7DBE7FF0078
:1014D00030483A060E00262979292600407F050566
:1014E0000700407F05253F005A3CE73C5A007F3EFD
:1014F0001C1C0800081C1C3E7F0014227F221400C4
:101500005F5F005F5F0006097F017F0000668995CD
:101510006A0060606060600094A2FFA2940008040A
:101520007E04080010207E20100008082A1C0800F5
:10153000081C2A0808001E10101010000C1E0C1E9B
:101540000C0030383E383000060E3E0E060000001B
:101550000000000000005F0000000007000700001E
:10156000147F147F1400242A7F2A12002313086496
:101570006200364956205000000807030000001C96
:10158000224100000041221C00002A1C7F1C2A006E
:1015900008083E08080000807030000008080808AD
:1015A00008000000606000002010080402003E51A6
:1015B00049453E0000427F400000724949494600CB
:1015C0002141494D33001814127F1000274545452D
:1015D00039003C4A49493100412111090700364987
:1015E00049493600464949291E0000001400000000
:1015F00000403400000000081422410014141414A8
:1016000014000041221408000201590906003E415D
:101610005D594E007C1211127C007F494949360009
:101620003E41414122007F4141413E007F494949BD
:1016300041007F09090901003E41415173007F08C3
:1016400008087F0000417F4100002040413F010029
:101650007F08142241007F40404040007F021C026E
:101660007F007F0408107F003E4141413E007F091A
:10167000090906003E4151215E007F0919294600F3
:1016800026494949320003017F0103003F404040A1
:101690003F001F2040201F003F4038403F006314A0
:1016A000081463000304780403006159494D4300A2
:1016B000007F4141410002040810200000414141E7
:1016C0007F0004020102040040404040400000034B
:1016D000070800002054547840007F284444380014
:1016E000384444442800384444287F003854545433
:1016F000180000087E0902001824241C78007F08C6
:101700000404780000447D4000002040403D00007B
:101710007F102844000000417F4000007C047804D2
:1017200078007C08040478003844444438007C186D
:1017300024241800182424187C007C0804040800C1
:1017400048545454240004043F4424003C404020A6
:101750007C001C2040201C003C4030403C004428C1
:10176000102844004C9090907C004464544C4400F9
:1017700000083641000000007700000000413608F4
:1017800000000201020402003C2623263C00000067
:1017900000000080808080000000000080E0701861
:1017A0000C1830E080000010F8901030783010B83D
:1017B000FC3810000000000000F8FCF800000000F9
:1017C0000000000000000000001C9C1C0000000045
:1017D000F8FCF80000000000001CFCF8C00000004D
:1017E00000000080E0F87C1C000000F0FCFCFC1C09
:1017F0001C1C1C1C1C1C1C000000000000C0F0F87D
:10180000381C1C1C1C1C1C3CF8F0E000E0F0F0F044
:10181000E0ECEEF7F37020007C7C7C7E007E7E7E28
:101820007F7F7F000080C0E07E5B4F5BFEC00000DA
:10183000C000DCD7DEDEDED7DC00C0000000000028
:101840000000000000000000000000000000000098
:101850000000000FBCE0818181838382870C1830F7
:1018600060C000001FFE90B9FFBB91983C18111397
:101870003F1100000000000000FFFFFF000000001B
:10188000000000000000000000FFFFFF000000005B
:10189000FFFFFF0000000000000000030F7FF8E0E2
:1018A00080F0FC3F0F0100000000003F3F3F1C1C88
:1018B0001C1C1C3C78F8F0E08000000000C3E7FF2F
:1018C0007E3C3878787070F8FFDF87000F1F3F7F0D
:1018D0007F7F7F7F3F1E0C001F1F1F3F003F3F3F4A
:1018E0007F7F7F00307B7F7830202030787F3B0007
:1018F00003000F7F0F0F0F7F0F0003000000000099
:101900000000000000000000000000000000183C83
:1019100024666341C18180808080808081C1416272
:10192000386C4CC68181808080808081C143623662
:101930001C1800000000000000FFFFFFC0C0C0C076
:10194000C0C0C0C0C0800000007FFF7F000000005A
:101950007FFFFFC080000000E0E0C0C0C0E0F97F72
:101960001F0700000000000000000070F0E0E0C071
:10197000C0C0C0E0F0F87F3F0F0000000F3F7FF9CC
:10198000E0E0C0C0C0C0C0E0F97F3F1F0000000021
:101990000000000000000000000000000000000047
:1019A0000000000000000000000000000000000037
:1019B0000000000000000000000000000000000027
:1019C00000000000000000000000000000001124E2
:1019D0001FBECFEFDAE0DEBFCDBF04B603FE27C0E7
:1019E0008091DA059091DB05A091DC05B091DD05D1
:1019F0008730904BA740B04BD1F41092DA0510928B
:101A0000DB051092DC051092DD0514BE84B7877FDC
:101A100084BF0FB6F894A895809160008861809388
:101A20006000109260000FBEE0E0F8E3099512E05C
:101A3000A0E0B1E0EEE8F8E602C005900D92A23415
:101A4000B107D9F725E0A2E4B2E001C01D92AA3D9A
:101A5000B207E1F70E944C270C9421340C9400004B
:101A6000CF93DF934091D8055091D905485D5340FD
:101A70009A0124583D4F21303240C0F020E032E03E
:101A8000241B350B6091D6037091D703FC01CA016A
:101A9000240F351FC1E0D0E08217930750F07093F8
:101AA000D7036093D603DF91CF9108952CE732E0FE
:101AB000E9CF4491DC01A852BC4F5C91451781F0FD
:101AC0004C93AC01A5E056954795AA95E1F7DE0148
:101AD00002C0AA0FBB1F4A95E2F7AD016A2B752B16
:101AE00001963196D9CFFC01AC014B5F5F4F8FEF70
:101AF00091E32191822728E030E087FF09C0880F19
:101B0000892721503109C9F7E417F50791F708959E
:101B1000880FF7CFE8EDF0E080818E7F8083109210
:101B2000E2001092DA001092E100A0EEB0E08C9199
:101B300081608C9380818F77808319BCA7EDB0E0A2
:101B40008C918E7F8C9380818F7E80831092B503E1
:101B500008952091E4003091E50095E6A9012091D7
:101B6000EC00822F817020FF06C08091E80080FF8A
:101B700006C080E008952091E80022FD1AC08091FF
:101B8000C203882389F0853089F08091EB0085FDC0
:101B90000FC02091E4003091E50042175307F9F29D
:101BA0009150E1F684E0089582E0089583E008957D
:101BB00081E00895EF92FF920F931F93CF937C01E2
:101BC0008B010E94A90DC82F811117C08091E800D8
:101BD00085FD0BC08091E8008E778093E8000E941D
:101BE000A90D882399F3C82F08C0F70181917F01BF
:101BF0008093F1000150110949F78C2FCF911F916B
:101C00000F91FF90EF9008958091C40387FF13C058
:101C10008091E80082FF06C08091E8008B77809376
:101C2000E80004C08091C2038111F2CF0895809131
:101C3000C2038823D9F38091E80080FFF8CF809118
:101C4000E8008E77ECCF982F9093E900242F762F21
:101C500050E0891731F07091EC002091ED00509127
:101C6000F00021FD07C09F5F973071F78093E90076
:101C700081E008953091EB003E7F3093EB0030918E
:101C8000ED003D7F3093ED003091EB0031603093FB
:101C9000EB007093EC002093ED005093F000209146
:101CA000EE0027FDE0CF80E00895CF92DF92EF9223
:101CB000FF920F931F93CF93DF93C8EDD0E08881FD
:101CC0008F7E8883E7EDF0E080818160808384E00F
:101CD00082BF81E08093B50388818E7F888302EE86
:101CE00010E0F80110821092DA0081EEC82ED12C9B
:101CF000F601108288818F77888388818068888345
:101D000088818F7D888319BC1092C2031092C3030F
:101D10001092C1031092C00390EEE92EF12CF7014E
:101D200080818B7F808388818160888342E060E04E
:101D300080E00E94230EF60180818E7F8083F8016F
:101D4000808181608083808188608083F7018081C9
:101D50008E7F8083888180618883DF91CF911F91FE
:101D60000F91FF90EF90DF90CF900895FC0180914C
:101D7000CA039091CB0386179707A0F061157105F0
:101D800029F49091E8009E779093E80090E0611527
:101D9000710551F4911108C08091E80082FF34C0B0
:101DA00080E00895BC01F2CF8091C2038823C1F185
:101DB0008530C1F18091E80083FD30C08091E8005A
:101DC00082FDEACF8091E80080FFE1CF8091F300AF
:101DD0002091F200382F6115710519F02830310576
:101DE00058F091E02830310509F090E02091E800AA
:101DF0002E772093E800CBCF81918093F100615042
:101E000071092F5F3F4FE7CF8091C203882341F0D4
:101E1000853041F08091E80083FFBECF81E00895D6
:101E200082E0089583E0089508958091B7030895AE
:101E3000CF92DF92EF92FF922FB7F894C090AE034B
:101E4000D090AF03E090B003F090B1032FBFA70193
:101E50009601261B370B480B590BCA01B901FF909D
:101E6000EF90DF90CF9008952FB7F8946091AE0374
:101E70007091AF038091B0039091B1032FBF08958B
:101E80009C01FC0132969FEF80E04191461751F092
:101E90009F3F19F4411101C0982F8F5F8630A9F739
:101EA0009F3F09F40895290F311D97FD3A95F901D7
:101EB000628308952091AB033091AC032817390752
:101EC00071F09093AC038093AB03E091A903F09180
:101ED000AA03309721F00084F185E02D099408953C
:101EE0002091A7033091A8032817390771F0909328
:101EF000A8038093A703E091A903F091AA03309768
:101F000021F00680F781E02D0994089580E008957E
:101F100078940895F894E82FE295EF70F0E031A1FD
:101F2000282F2F7081E090E001C0880F2A95EAF7F2
:101F3000982F9095932391A392A1892B82A30C941F
:101F4000880F9091FD0292FF06C0282F287128303B
:101F5000F9F4877F846093FF06C0282F2871283109
:101F6000F1F4877E84612091FE0220FF06C0382FA5
:101F700038713830D9F4877F816021FF06C0282F5F
:101F800028712831D1F4877E816194FD877E089580
:101F9000282F24712430F9F68B7F8860DCCF282F1E
:101FA0002471243101F78B7E8861DDCF382F3171A8
:101FB000313019F78E7F8860E0CF282F21712131D1
:101FC00021F78E7E8861E1CFCF93DF93EC018238D9
:101FD0009105A9F1D8F58133910509F496C048F52A
:101FE0008932910509F48AC08A9709F495C0C11510
:101FF00022E5D20708F0B6C0C11531E5D30708F0D5
:1020000026C1C83ED10508F09CC0C03ED10560F590
:10201000C83AD10508F087C0C53AD10508F0EFC02D
:10202000C130D10509F12097F9F0C430D105E0F4B1
:1020300040C08533910509F45AC0C997C1F6809113
:10204000FD02837089F0C0EED0E00EC0833E9105A2
:1020500099F170F4803E910501F1823E910539F6C7
:102060008091FD0282FD21C0CE01DF91CF910895C4
:10207000863E910561F1873E910571F1843E91059F
:1020800009F0B5CF8091FE0281FFEECF8091FD0275
:10209000C7EED0E084FD0DC0E7CF8091FD0280FD4A
:1020A00007C19091FE0290FFDFCFC3EED0E084FF26
:1020B000DBCFD0E0C0E0D8CF8091FD0282FDFBC035
:1020C0009091FE0290FDBFCF84FFCECFF2CF8091E2
:1020D000FD0283FDDDCFC8CF8091FD0283FDEEC000
:1020E0009091FE0291FFF0CFC4EED0E0BDCF809181
:1020F000FD0285FFB9CFC9E2D0E0B6CF8091FD02E5
:1021000085FFB2CFC5E3D0E0AFCF8091FD0286FF5F
:10211000ABCFCAE2D0E0A8CF8091FD0286FFA4CF6A
:10212000C1E3D0E0A1CFCF3BD10518F6C85AD0E02B
:10213000CC0FDD1FC650DE4F0990D881C02DD4646E
:1021400093CFC11540E5D40708F064C0C11580E401
:10215000D80708F05CC0CE019A9581159F4108F41C
:1021600083CFA7CFC11536E5D30718F5C11545E5CF
:10217000D40708F084C0C11584E5D80708F07AC0F8
:102180009C2F969596959E0123703327C115D345B4
:1021900008F462C0C1E0D0E002C0CC0FDD1F2A9578
:1021A000E2F730E2939FC0011124C82BD92BDA68E3
:1021B0005BCFC1158AE5D80778F4C11599E5D90731
:1021C00008F068C0C11528E5D20708F472CFDC2FEB
:1021D000CC27C06FD06A48CFCE019056811590426F
:1021E00008F067CF8D2F8F710E94A10F90E0982F7C
:1021F000882788279F719C012C2BE90149C0C55A6B
:10220000D0E0C950DE4FC881D0E0D0642DCFDF7060
:10221000D06A2ACFCE01E4E096958795EA95E1F75A
:1022200083702C2F26952695237040E2249F9001E1
:102230001124382B8C2F8370C1E0D0E002C0CC0F6A
:10224000DD1F8A95E2F7C22BD32BDC680DCFDC2F84
:10225000CC27C16FD06A08CFC1E0D0E002C0CC0F5C
:10226000DD1F2A95E2F720E2929FC0011124C82BBE
:10227000D92BEBCFDC2FCC27C46FD06AF5CE8C2FB7
:102280000E94A10FC82FD0E0DC2FCC27CC27DF7114
:10229000D062EACE8C2F8F700E94A10F34E0D695C9
:1022A000C7953A95E1F7CF709C2FEC01D069DCCE51
:1022B000C9E3D0E0D9CEC2EED0E0D6CEC6EED0E0B3
:1022C000D3CE8091B60281111092B602089580910A
:1022D000B5029091B402892B9091B302892B80931F
:1022E00044029091B602992391F0892B8093440285
:1022F00020E086E492E0FC013191CF0131112F5FA3
:10230000F2E08C349F07B9F721110E946111E0912E
:10231000A903F091AA03309731F00280F381E02DF8
:1023200084E492E0099408958091B1029091800232
:10233000981301C008958F5F8770FACFAF92BF9254
:10234000CF92DF92EF92FF920F931F93CF93DF9381
:10235000C0902D03D0902E03E0902F03F090300317
:102360004091E8025091E9026091EA027091EB021B
:10237000C42AD52AE62AF72ACFE1D0E0082F10E0B8
:1023800026E0929F000D111D11249CE3A92EBC2E66
:10239000D701C6010C2E04C0B695A79597958795D1
:1023A0000A94D2F780FD0FC0219788F7B12C8B2DAE
:1023B000DF91CF911F910F91FF90EF90DF90CF9021
:1023C000BF90AF900895AC9EF001AD9EF00D11242A
:1023D000E00FF11FEE0FFF1FE05FFD4E859194911E
:1023E0000E94E40F019701F3E2CFCF93DF93EC015A
:1023F0000E949E11EC2FF0E096E0D99FE00DF11DB8
:1024000011249CE3899FE00DF11D1124EE0FFF1FA5
:10241000E05FFD4E85919491DF91CF910C94E40F94
:10242000E92FEE0FE90FEE0F8E0F982F977086951C
:102430008695869525E0829FF0011124EE5AFD4F86
:1024400050E040E080E0219130E0092E02C0369556
:1024500027950A94E2F721703327042E01C0220F3A
:102460000A94EAF7822B4F5F5F4F4530510559F7C9
:102470000895E92FEE0FE90FEE0F8E0F982F97704A
:1024800041E001C0440F9A95EAF7869586958695B6
:1024900095E0899FF0011124EE5AFD4F30E020E0D5
:1024A00070E05191DF011197CB01022E02C0969589
:1024B00087950A94E2F78170819585278423852783
:1024C0008C932F5F3F4F2530310559F70895FC015C
:1024D000808191810E94F511292F2F7092959F7014
:1024E00092509E3078F4E92FF0E0ED5DFB4C0C94B7
:1024F000A92E803F19F020F4883E20F481E0089551
:10250000843FE1F380E00895883EC0F3813FD1F736
:10251000F5CF822F869586958695089590E080E088
:102520000E94700F90E080E00E945A0F1092B40257
:102530001092B3020C9467110F931F938B019C01AF
:102540000670112722273327063011052105310592
:1025500069F4686060932D0370932E0380932F03BA
:10256000909330031F910F910C948E12677FF2CFDE
:102570000F931F9341E050E060E070E004C0440F0F
:10258000551F661F771F8A95D2F7CB01BA01609558
:1025900070958095909500912D0310912E032091B8
:1025A0002F033091300360237123822393231F91E3
:1025B0000F910C949C129091B20280958923809384
:1025C000B202282F277039F4282F082E000C330B65
:1025D0009217130621F49091FE0292FF07C0859591
:1025E000859585950E94B8121092B20208950F93B6
:1025F0001F9341E050E060E070E004C0440F551FBD
:10260000661F771F8A95D2F780912D0390912E0334
:10261000A0912F03B09130038A019B01082B192B45
:102620002A2B3B2BC901B8011F910F910C949C12CE
:102630006093E8027093E9028093EA029093EB02C0
:102640000C948E12882341F080959091B5028923D5
:102650008093B5020C9467110895882339F0909106
:10266000B502982B9093B5020C94671108958823B6
:10267000B1F19CEF980F913A70F4E6E4F2E0919199
:10268000891303C0DF0111971C9242E0EC34F40778
:10269000B1F70C94671190E2980F983088F4877026
:1026A00021E030E0A90102C0440F551F8A95E2F7EE
:1026B000CA0180959091B50289238093B502E9CF34
:1026C0009BE5980F933020F490E080E00C94700F1D
:1026D000885A873120F490E080E00C945A0F0895D6
:1026E000CF93C82F882309F44EC08CEF8C0F813A0A
:1026F000F8F4E6E4F2E08CE492E0DF012D91C217F9
:1027000059F08A179B07D1F76C2F84E492E00E945E
:10271000400FCF910C9467112191C21303C0DF01C8
:1027200011971C928E179F07B9F70E946711ECCF83
:1027300080E28C0F883068F4C77021E030E001C07F
:10274000220FCA95EAF78091B502822B8093B502D9
:10275000E0CFEBE5EC0FE33040F4F0E0E950FE4F62
:10276000808190E0CF910C94700FC85AC73158F413
:10277000EC2FF0E0EE0FFF1FE650FE4F80819181BD
:10278000CF910C945A0FCF910895CF93C0916603C7
:10279000C932D0F080914D0290E001968170992766
:1027A00080934D0221E030E0281B390B4CE752E0CA
:1027B000249FC001259F900D349F900D11248455B6
:1027C0009F4FCF910C94300D80914E0290E0019676
:1027D00065E070E00E94762E80934E0224E030E0A7
:1027E000281B390B4CE752E0249FC001259F900D18
:1027F000349F900D11248C559A4F0E94300DC83291
:1028000049F2CF910895CF92DF92EF92FF920F930A
:102810001F93CF93DF936C017B0164E670E088E740
:102820000E94332BEC0197FD12C010E000E0F6018E
:10283000E00FF11F849164E670E00E94AD2BEC0183
:10284000892B29F40F5F1F4F0E151F0581F70E947A
:10285000302CCE01DF91CF911F910F91FF90EF901F
:10286000DF90CF9008958091A5039091A6039111D8
:1028700003C091E089270895882369F062E070E041
:1028800087EA93E10E940314892B19F08091A50334
:1028900008951092A5038091A503EBCFCF93C0912B
:1028A000A5038091A6038823D1F00E94340F605ABB
:1028B00075418F4F9F4F6093A1037093A203809344
:1028C000A3039093A403C11108C062E070E085EAFD
:1028D00093E10E940314892B29F0C091A5038C2F4A
:1028E000CF91089581E08093A503F7CF1092B502B0
:1028F000E6E4F2E086E0DF011D928A95E9F70C94A8
:102900008E121F93CF93DF93CDB7DEB7AA970FB682
:10291000F894DEBF0FBECDBF84EC93E02091F100B0
:10292000FC012193CF01F3E08C3C9F07B9F7809124
:10293000C503833009F46FC0B8F4813009F446C090
:10294000823009F4B0C08091E80083FF7BC280919F
:10295000C4039091C5039A3008F074C2E92FF0E0E7
:10296000EF5CFB4C0C94A92E8A3009F48BC08B30A1
:1029700009F46EC0893039F78091C403813219F7A8
:102980008091C8039091C9030297E8F68091E8000E
:10299000877F8093E8008091E80082FF37C09091A4
:1029A000F3008091F200029729F48091F1008B7F6F
:1029B000813021F48091F1008093B7038091E80089
:1029C0008B778093E8000E94040EBDCF8091C403F2
:1029D000813A09F0B8CF8091E800877F8093E800C2
:1029E0008091C8039091C903892B61F468E088EB5A
:1029F00093E070E00E94B60E8091E8008B778093A0
:102A0000E800A1CF60E090E080E0F3CF8091C203C6
:102A10008111C1CF98CF8091C403813A09F093CF3F
:102A20008091C8039091C903892B09F08CCF8091C4
:102A3000E800877F8093E8008091E80080FFFCCF6A
:102A4000809158018093F1008091E8008E77B9CF92
:102A50008091C403813209F076CF8091C8039091B0
:102A6000C903892B09F06FCF8091E800877F80939D
:102A7000E8000E94040E8091C603809358010E94D2
:102A8000761461CF8091C403813209F05CCF8091CC
:102A9000E800877F8093E8000E94040E8091C703BE
:102AA0008093B60350CF8091C403813A09F04BCF95
:102AB0008091E800877F8093E8008091E80080FFA4
:102AC000FCCF8091B603BECF803899F0823809F0F0
:102AD000B9C18091C8038F70873008F0B3C180936B
:102AE000E9008091EB0085FB882780F91092E900CE
:102AF00006C08091C0039091C103911182609091B2
:102B0000E800977F9093E8008093F1001092F10025
:102B10008091E8008E7792C1882309F480C18230C9
:102B200009F090C18091C603811183C18091C803CF
:102B30008F702FEF280F263008F084C18093E900B2
:102B40002091EB0020FF75C1933031F48091EB00B0
:102B500080628093EB006DC19091EB009061909347
:102B6000EB0021E030E001C0220F8A95EAF72093C4
:102B7000EA001092EA008091EB008860EACF8111B0
:102B800061C11091C6031F778091E3008078812B8B
:102B90008093E3008091E800877F8093E8000E94A3
:102BA000040E8091E80080FFFCCF8091E3008068F4
:102BB0008093E30082E0111183E08093C20342C15D
:102BC0008058823008F03EC18091C6039091C703BF
:102BD0008C3D23E09207A1F583E08A838AE2898312
:102BE0004FB7F894DE01139620E03EE051E2E32F68
:102BF000F0E050935700E49120FF03C0E295EF709E
:102C00003F5FEF708E2F90E0EA30C0F0C7968D9353
:102C10009D932F5F243159F74FBF8091E800877F44
:102C20008093E8006AE270E0CE0101960E94B60E41
:102C30008091E8008B778093E80004C1C096E7CFCD
:102C40004091C8035091C903292F33272330310500
:102C500009F444C078F52130310509F46FC08BE3E5
:102C600090E0EBE1F4E12230310509F0EBC0209176
:102C7000E800277F2093E8002091CA033091CB031E
:102C80008217930708F49C0140E02115310509F0F3
:102C900064C0411162C08091E80082FDC9CF80917B
:102CA000C203882329F2853019F28091E80083FF5E
:102CB000F2CFBECF21323105A9F12232310509F020
:102CC000C1C04115510509F443C04130510509F017
:102CD000B9C082E390E0E9EAF3E1C9CF99278130F6
:102CE0009105C1F0009759F0029709F0ABC0E8E6F2
:102CF000F4E1E4918E2F90E0E8E6F4E107C0EAE821
:102D0000F4E1E4918E2F90E0EAE8F4E1009709F411
:102D100099C0ADCFE8E7F4E1E4918E2F90E0E8E7C9
:102D2000F4E1F4CF4115510571F04130510509F03E
:102D300089C089E090E0E6E4F4E199CF82E190E097
:102D4000E6E5F4E194CF89E090E0EDE2F4E18FCFA5
:102D500080E490E0EBEDF3E18ACF8091C203882319
:102D600009F466CF853009F463CF8091E80083FDD4
:102D70005FCF8091E80082FD8ECF8091E80080FFD8
:102D800084CF9091F3008091F2002115310519F064
:102D90008830910550F041E0089709F040E08091BB
:102DA000E8008E778093E80070CF44914093F10063
:102DB0003196215031090196E8CF803809F042C0A0
:102DC0008091E800877F8093E8008091C30380931F
:102DD000F1009ECE811136C01091C603123090F5DD
:102DE0008091E800877F8093E8001093C3030E94DE
:102DF000040E112311F084E005C08091E30087FDEB
:102E0000FACF81E08093C20342E061EC81E00E944E
:102E1000230E42E261EC82E00E94230E13C08091F7
:102E2000C603813079F481E0933009F080E080932B
:102E3000C1031092E9008091E800877F8093E80049
:102E40000E94040E8091E80083FF0AC08091E80090
:102E5000877F8093E8008091EB0080628093EB0095
:102E6000AA960FB6F894DEBF0FBECDBFDF91CF910B
:102E70001F910895CF93DF93682F81E06A3019F096
:102E80006D3029F480E0DF91CF910C94BB178091D5
:102E9000D8059091D90526E0FC01A0EDB3E00190A2
:102EA0000D922A95E1F7603E08F45AC026E0FC0135
:102EB00011922A95E9F7C091D805D091D90546E03D
:102EC00050E0BE0180ED93E00E94112F9E01285D2D
:102ED0003340892B41F1C90145E0969587954A9584
:102EE000E1F741E050E0BA0102C0660F771F8A9512
:102EF000E2F7CB016091D6037091D703862B972B15
:102F0000B9016B5F7F4FE5E076956795EA95E1F74C
:102F100002C0440F551F6A95E2F7842B952B9093BE
:102F2000D7038093D6032A5F3F4F4091CF03642F8E
:102F300070E0C9010E94562E481B463010F4240F41
:102F4000311D211572E0370710F030E020E02852E3
:102F50003C4F3093D9052093D805DF91CF91089548
:102F6000F6E06F9FB001112462577B4E46E050E0BF
:102F70000E94082FA0CFCF93382FE091D805F09171
:102F8000D905E85DF3402091CF03622F70E0CF01B7
:102F90000E94562E281B822F332361F066E00E9488
:102FA0006A2EC82FC15010F4CF91089580E20E947C
:102FB0003A17F8CF9F01280F311D2115324018F024
:102FC00080E0F0E0E0E08E0F9F2F911D88529C4F33
:102FD0009093D9058093D805E7CF0F931F93CF9394
:102FE000DF93EC01FC0101900020E9F78F01015013
:102FF0001109C017D10728F0DF91CF911F910F91D0
:10300000089589910E943A17F4CF9091C2039430A9
:1030100031F58093B2037093B4036093B30382E0FD
:103020008093E9008FEF9091E800815095FD06C0F4
:1030300095ED9A95F1F700008111F5CF8091E800A8
:1030400085FF0DC050E040E063E070E082EB93E06C
:103050000E94DA0D8091E8008E778093E800089551
:10306000BC0184E00C940518BC0183E00C940518A5
:10307000CF93DF93EC0181E08093E9008FEF909193
:10308000E800815095FD06C095ED9A95F1F7000096
:103090008111F5CF8091E80085FF14C050E040E039
:1030A00068E070E0CE010E94DA0D8091E8008E7732
:1030B0008093E80088E0FE01A8EBB3E001900D9258
:1030C0008A95E1F7DF91CF9108959F92AF92BF92D9
:1030D000CF92DF92EF92FF920F931F93CF93DF93E4
:1030E0007C015B016A018091F80201E010E08A3006
:1030F00010F40AE010E0C1E0D0E0F894B501C70197
:10310000F6010995982E0E94880F911004C021960F
:103110000C171D076CF4892DDF91CF911F910F9132
:10312000FF90EF90DF90CF90BF90AF909F90089569
:10313000CC9F9001CD9F300D300D112490E080E0A8
:1031400045E34A95F1F70000019682179307C1F70E
:10315000D4CF8091C202811110C08091D8008061CB
:103160008093D8008AE18A95F1F700C08091D90058
:1031700080FF0AC081E08093C20281E09091C20288
:10318000913009F080E0089582E08093C2020E94AD
:103190008A0D1092C203F1CF0E94A918882351F022
:1031A000E091A903F091AA03309721F00190F081FA
:1031B000E02D099480E00895CF9384E090E00E9490
:1031C000F031C82F82E290E00E94F031982F8C2FCE
:1031D000CF910895BF92CF92DF92EF92FF920F931B
:1031E0001F93CF93DF93B82EEB01F42E6901688112
:1031F00079818A819B810E94180F6436710581054F
:10320000910510F4FF2019F1EB2C0B2C000CFF089A
:103210008B2D9AE08902F0011124E050FF4F838149
:10322000948184539D4F428150E00417150708F4A0
:10323000A801B6010E941E2FC7010E94A22D892B52
:1032400089F40E94340F688379838A839B8381E0A9
:10325000DF91CF911F910F91FF90EF90DF90CF9072
:10326000BF90089580E0F4CF0F931F93CF93DF9327
:103270000F92CDB7DEB78091A50389832091DF023D
:1032800090E041E02817190609F440E001E010E061
:103290009E012F5F3F4F64EF72E086E00E94EA18C4
:1032A0000F90DF91CF911F910F9108950F931F936E
:1032B000CF93DF930F92CDB7DEB7809166038983FA
:1032C00041E09091DE02981301C040E001E010E07F
:1032D0009E012F5F3F4F60EF72E085E00E94EA1889
:1032E0000F90DF91CF911F910F9108950F931F932E
:1032F00041E00091D6021091D7022091D80230917E
:10330000D90280912D0390912E03A0912F03B091AB
:103310003003081719072A073B0709F440E004E0C7
:1033200010E02DE233E06CEE72E083E00E94EA18D8
:10333000882301F141E00091DA021091DB02209133
:10334000DC023091DD028091E8029091E902A091C7
:10335000EA02B091EB02081719072A073B0709F4A4
:1033600040E004E010E028EE32E064EE72E084E039
:103370000E94EA181F910F9108950F931F93CF9306
:10338000DF9300D000D0CDB7DEB76091E00270913E
:10339000E1028091E2029091E3020E94180F6436EC
:1033A00071058105910588F10E94A918882379F19A
:1033B0000E94340F6E5F7F4F8F4F9F4F69837A83D8
:1033C0008B839C83809117019091180184539D4FAA
:1033D0004091160150E04530510510F044E050E0B6
:1033E000BE016F5F7F4F0E941E2F82E090E00E941F
:1033F000A22D892BD9F40E94340F6093E0027093C0
:10340000E1028093E2029093E30281E010C00E9407
:10341000340F0091F9021091FA022091FB023091D1
:10342000FC02600F711F821F931FC4CF80E00F90BA
:103430000F900F900F90DF91CF911F910F910895F2
:103440000F931F93CF93DF9300D000D000D0CDB760
:10345000DEB78B0190E080E00E94A22D892B09F05D
:1034600071C04091050150E04115510511F041E056
:1034700050E0609106017091070164537D4FCE01C9
:1034800006960E941E2F6091C8027091C902809119
:10349000CA029091CB020E94180F64367105810513
:1034A000910540F48DEC92E00E94730D9E81891786
:1034B00009F455C081E090E00E94A22D892BA1F073
:1034C00080E095E0E3ECF2E0D80101900D929A954E
:1034D000E1F726960FB6F894DEBF0FBECDBFDF91A1
:1034E000CF911F910F91089540910F0150E0463008
:1034F000510510F045E050E060911001709111010C
:1035000064537D4FCE0101960E941E2F8DEC92E0F8
:103510000E94730D9E818913D3CF0E94340F609354
:10352000C8027093C9028093CA029093CB0285E0CF
:10353000FE013196A3ECB2E001900D928A95E1F77D
:1035400081E0BFCF80E095E0EDECF2E0DE01119686
:1035500001900D929A95E1F78111E9CFB2CF81E008
:10356000F2CF69EE7EEF90E080E00E941C3260E0D6
:1035700082E090E00E94FE3160E083E090E00E94F3
:10358000FE311092E8021092E9021092EA021092C3
:10359000EB0260E084E090E00E94FE3160E082E2B5
:1035A00090E00E94FE3160E085E090E00E94FE31F4
:1035B00060E086E090E00E94FE316FEF87E090E0EF
:1035C0000E94FE3140E050E0BA0188E090E00E94A5
:1035D000103260E08DE090E00E94FE3140E050E06B
:1035E000BA0188E190E00E94103260E087E190E04B
:1035F0000E94FE3140E050E0BA018CE190E00E9470
:10360000103270E060E080E290E00E941C3240E006
:1036100050E0BA0188E190E00E94103240E050E0B2
:10362000BA018FE090E00E94103240E050E0BA0111
:1036300083E190E00C941032CF93C091FE02C2FB64
:10364000992790F9981781F080FBC2F9C093FE0288
:103650006091FD0284E090E00E94FE316C2F82E2D6
:1036600090E0CF910C94FE31CF9108951F920F926C
:103670000FB60F9211242F933F934F935F936F9345
:103680007F938F939F93AF93BF93CF93DF93EF93EA
:10369000FF93D091E900DF708091EC00C82FC170DA
:1036A00080FDC0E81092E9008091F000877F809350
:1036B000F00078940E9481141092E9008091F0004B
:1036C00088608093F000CD2BCF70C093E900FF910C
:1036D000EF91DF91CF91BF91AF919F918F917F91AA
:1036E0006F915F914F913F912F910F900FBE0F906F
:1036F0001F9018951F920F920FB60F9211242F93BF
:103700003F934F935F936F937F938F939F93AF9369
:10371000BF93EF93FF938091E10082FF09C08091F6
:10372000E20082FF05C08091E1008B7F8093E10081
:103730008091DA0080FF24C08091D80080FF20C0F3
:103740008091DA008E7F8093DA008091D90080FF2B
:103750009BC080E189BD82E189BD09B400FEFDCF37
:1037600081E08093C2038091B503811109C00E945A
:103770008A0D0E94550E8091E20084608093E200E1
:103780008091E10080FF17C08091E20080FF13C0AC
:103790008091E2008E7F8093E2008091E200806160
:1037A0008093E2008091D80080628093D80019BC99
:1037B00085E08093C2038091E10084FF29C080915D
:1037C000E20084FF25C080E189BD82E189BD89B521
:1037D000982F917080FFFBCF8091D8008F7D8093D0
:1037E000D8008091E1008F7E8093E1008091E2001B
:1037F0008F7E8093E2008091E20081608093E200FE
:103800008091C303882309F445C084E08093C203F8
:103810008091E10083FF27C08091E20083FF23C0F5
:103820008091E100877F8093E10082E08093C20372
:103830001092C3038091E1008E7F8093E10080911C
:10384000E2008E7F8093E2008091E20080618093AD
:10385000E20042E060E080E00E94230E8091F000F0
:1038600088608093F000FF91EF91BF91AF919F919D
:103870008F917F916F915F914F913F912F910F9019
:103880000FBE0F901F90189519BC1092C203109292
:10389000B50376CF8091E30087FD93E09093C20358
:1038A000B7CF78941F921FB61F9211248F939F93C6
:1038B000AF93BF938091AE039091AF03A091B003FB
:1038C000B091B1030196A11DB11D8093AE039093F9
:1038D000AF03A093B003B093B103BF91AF919F9199
:1038E0008F911F901FBE1F9018959C014FB7F894A1
:1038F0008091AE039091AF03A091B003B091B1035A
:103900004FBF821B930B08952FB7F8948091AE039D
:103910009091AF03A091B003B091B1032FBF089570
:103920000F931F93CF93DF93C62FD42F022FFC0149
:1039300082818823A1F06093CE030E94841C90931F
:10394000CD038093CC03C77081E001C0880FCA9576
:10395000EAF7DF91CF911F910F910C942D13809175
:10396000CE03681338C08091CC039091CD030E94A0
:10397000751C8436910578F510E21D0FCD17B9F04E
:1039800080E28C0F883040F4C77081E001C0880F5E
:10399000CA95EAF70E942213183048F481E09D2F5F
:1039A000977001C0880F9A95EAF70E942D13802F17
:1039B0000E947013802F0E943713183098F4D7702C
:1039C00081E001C0880FDA95EAF7DF91CF911F916E
:1039D0000F910C942213C77081E001C0880FCA9523
:1039E000EAF7F3CFDF91CF911F910F9108958F9256
:1039F0009F92AF92BF92CF92DF92EF92FF920F937E
:103A00001F93CF93DF93CDB7DEB72F970FB6F89400
:103A1000DEBF0FBECDBF8E010F5F1F4F8AE0D80102
:103A20001D928A95E9F78AE2C82E82E0D82EF12C01
:103A3000E12CAA24A394B12CF60181916F018F3F50
:103A400009F44AC0F894E82FE295EF70F0E021A164
:103A50008F70A50102C0440F551F8A95E2F7CA0175
:103A6000922F982B91A392A18095892382A30E94E3
:103A7000880F00C0E4E3F2E030E020E0912C4191B7
:103A80004F3F09F47FC0A42FA295AF70B0E090968D
:103A90008C9190E04F7002C0959587954A95E2F71A
:103AA00080FD70C08A2D022E01C0880F0A94EAF7AB
:103AB000982A2F5F3F4F2630310509F7F6013197DD
:103AC00080818F3F11F00E948A0F50EA5A95F1F7DA
:103AD000F801EE0DFF1D90828FEFE81AF80A95E0CD
:103AE000E916F10409F0A8CF4AE050E0B8018FEFE1
:103AF00092E00E94112F7C01892B41F08AE0F801AD
:103B0000AFEFB2E001900D928A95E1F710910A03B0
:103B1000E114F104C9F181E08093B9020E94841C90
:103B20009093B8028093B7028091B7029091B80247
:103B30000E94751C059778F0AFEFB2E0E12FF0E03E
:103B4000E55FFC4F84E093E02D9121938A179B075A
:103B5000D9F71092B90281E090E0EF28C9F02F96D2
:103B60000FB6F894DEBF0FBECDBFDF91CF911F918E
:103B70000F91FF90EF90DF90CF90BF90AF909F900C
:103B80008F90089580E094CF8091B9028111CCCFBD
:103B90000E94A918B82EE0910A03882309F4BBC03B
:103BA0008E01055F1F4F85E0D8011D928A95E9F7C8
:103BB000F0E09F01255F3C4F79018091F802AE0152
:103BC000405F5F4F6A018A3008F07DC040E25AE1F1
:103BD000B801C7010E946518882309F48BC04DEB1A
:103BE00059E1B801C7010E946518882309F482C011
:103BF00046E759E1B801C7010E946518882309F416
:103C000079C046E559E1B801C7010E9465188823CB
:103C100009F470C044E359E1B801C7010E94651876
:103C2000882309F467C01092F802E0910903F0E0DC
:103C3000AF01455F5C4FD80110E0FA019191AF01EF
:103C40008D91981731F09F0121503109F90180833E
:103C50001B2DAC15BD0589F78091BC029091BD026A
:103C60000E94751C893E934060F160916603E62EC8
:103C7000F12C662777276E197F09072E000C880B19
:103C8000990B0E94E73227EA39E747E45DE30E9497
:103C9000B4334B015C01B701FF0C880B990B0E94F8
:103CA000E7329B01AC01C501B4010E9433320E948E
:103CB000B632609366030E94841C9093BD02809389
:103CC000BC02812F4CCF8091BA029091BB020E941E
:103CD000751C843F914008F079CFA0910903B0E0B2
:103CE000A55FBC4FF8011D921192EC15FD05D9F7A7
:103CF0001B2DB2CF8091F8028F3F31F08F5F809300
:103D0000F8028A3008F491CF0E94841C9093BB0281
:103D10008093BA02E2CFF0E0E55FFC4FF89485E0D3
:103D2000ADECB2E001900D928A95E1F78DEC92E056
:103D30000E94730D8093CC020E94880FF894C0906B
:103D4000D202D090D302E090D402F090D5028091BC
:103D5000BE029091BF02A091C002B091C102C816EC
:103D6000D906EA06FB06D1F0C092BE02D092BF028D
:103D7000E092C002F092C1020E94A91881110EC007
:103D80000E94340FC61AD70AE80AF90AC092F9024B
:103D9000D092FA02E092FB02F092FC020E94880F9D
:103DA000F8948091D6029091D702A091D802B09158
:103DB000D90280932D0390932E03A0932F03B093E9
:103DC00030038091DA029091DB02A091DC02B09185
:103DD000DD028093E8029093E902A093EA02B09397
:103DE000EB020E94880FF8948091DE0280936603B4
:103DF0000E94880FF8948091DF02882331F00E949E
:103E00004E140E94880F80E0AACE0E943314F9CF8E
:103E10004F925F926F927F928F929F92AF92BF92DA
:103E2000CF92DF92EF92FF920F931F93CF93DF9386
:103E300000D000D00F92CDB7DEB77C01FC018381AA
:103E40009481892B39F01081D180812F8D218F3F72
:103E500009F00FC50F900F900F900F900F90DF910A
:103E6000CF911F910F91FF90EF90DF90CF90BF9077
:103E7000AF909F908F907F906F905F904F9008953C
:103E80000E949E11082F682F89819A810E94391201
:103E9000E12FF0E026E0D29EE00DF11D11243CE37D
:103EA000039FE00DF11D1124EE0FFF1FE05FFD4E9B
:103EB00005911491F7018281882309F4ACC0C801EF
:103EC00090568115F0E29F0750F0905E811520E139
:103ED000920728F0915C81159F4108F048C0C80105
:103EE00099279C01245031092432310508F448C037
:103EF0008B970E9708F444C060E2D62E0C33110560
:103F000020F4F801E554FE4FD0801F92DF921F93FA
:103F10000F93F70180811F928F9381811F928F935E
:103F200089E591E09F938F931F9288E18F9381E3BE
:103F300093E09F938F930E942E2F0FB6F894DEBFCD
:103F40000FBECDBF80914F0290915002449709F46B
:103F5000A0C080914F0290915002FC01E75BFC4FA2
:103F6000D08201969093500280934F0254C090E00B
:103F700080E00F3F110511F008F0B3CFC801B1CFB9
:103F80008091BC029091BD020097D9F10E94751CEE
:103F90009C0150E040E060E67AEE80E090E00E9414
:103FA0008A2ECA01B90125E030E040E050E00E94CD
:103FB0008A2EC09066032F3F310519F010F02FEFC5
:103FC00030E0D12C2C193D09B90190E080E00E942D
:103FD000E53227EA39E747E45DE30E94B4330E9403
:103FE0009F324B015C01B601DD0C880B990B0E94DE
:103FF000E732A50194010E9433320E94B6326093E9
:1040000066030E94841C9093BD028093BC02F7015A
:104010008281811171CF043F3CE5130709F4A3C0ED
:1040200008F045C0093D9CE5190709F498C00A3D10
:10403000ECE51E0709F4A3C0083DFCE51F0709F0E5
:1040400045C026E241EE61EEC7010E94901C8091BE
:10405000B202877009F4FECEF7018281882309F449
:10406000F9CE82E00F900F900F900F900F90DF919C
:10407000CF911F910F91FF90EF90DF90CF90BF9065
:10408000AF909F908F907F906F905F904F900C9427
:10409000DB121092500210924F02E9E4F3E08DE53A
:1040A00093E020E221938E179F07E1F752CF063F5E
:1040B0002CE5120709F45FC008F459C027E245EE69
:1040C00066EE073F8CE5180709F4BECFF701828141
:1040D000882309F4DFC31092CE030230FCE51F07EA
:1040E00008F42EC106312CE5120730F0C8018B5FB1
:1040F0009C45099708F024C10E94DC189093FE02A9
:104100008093FD0200313CE5130709F4E8C008F094
:1041100076C008309CE5190709F4D7C008F045C0FF
:104120000430FCE51F0709F4C8C060F502303CE527
:10413000130709F4B8C003301C4509F4BAC06091F4
:10414000FD021091FE0284E090E00E94FE31612F9A
:1041500082E290E00E94FE310E94761478CF27E23E
:1041600045EE65EE71CF26E241EE60EE6DCF27E2BF
:1041700045EE64EE69CF26E241EE62EE65CF28E2BD
:1041800041E0EFCF8091FD02806106309CE5190788
:1041900009F48CC08091FD02886007301C4508F44A
:1041A00085C08091FD02806281C08091FD028D7F7B
:1041B0000C30FCE51F0709F479C070F48091FD0212
:1041C0008C600A303CE5130709F470C008F481C024
:1041D0008091FD028E7F6AC08091FD02877F0E3044
:1041E0009CE5190709F462C08091FD028B7F0F30B6
:1041F0001C4508F45BC08091FD028F7E57C00C3FC8
:10420000FCE51F0709F45DC030F503313CE51307F9
:1042100009F46DC078F401319CE5190709F463C015
:1042200002311C4509F08BCF0E9476148091FD026B
:104230008F773CC00531FCE51F0709F460C008F426
:1042400074C08091FE0281600B3F1C4509F077CF5E
:104250008093FE0274CF01158DE5180709F44BC059
:1042600088F48091FE028D7F0E3FECE51E0781F3FE
:104270008091FE028E7F0F3F1C4550F38091FE021D
:104280008360E6CF02302DE5120709F457C008F429
:1042900042C060E003301D4509F051CF8EE090E050
:1042A0000E94FE314CCF8091FD0281608093FD021F
:1042B00046CF8091FD028260F9CF8091FD0284603B
:1042C000F5CF8091FE028260C3CF8091FD028064B1
:1042D000EDCF0E9476148091FD028068E7CF809137
:1042E000FD028F7DE3CF8091FD028F7BDFCF809138
:1042F000FD02837FDBCF8091FE028C7FA9CF80916E
:10430000FD0282FB992790F921E0922790FB82F928
:1043100090FB83F9CBCF8091FE02982F90959170FE
:104320008E7F892B90FB81F993CF0E947614909118
:10433000FD02892F97FB87F98058B8CF61E0AECF97
:1043400006319CE5190709F0BBC28091B5028A7A53
:1043500091E009F490E09093510269E2811165E3E4
:1043600084E492E00E94400F0E94671170CE85E3C2
:1043700099C20E947614EFEFF4E32CE0E150F04094
:104380002040E1F700C0000087E797E7909301081D
:104390008093000888E19AE00FB6F894A89580937E
:1043A00060000FBE90936000FFCF81E0A9C280E063
:1043B000A7C2812F902F0E941012D82EB4C2212F95
:1043C0002F70A22E107F19F0A29420EFA222DD20E0
:1043D000C9F0AA2069F080E2800F883010F08110C7
:1043E0000BC08091B502A82AA092B5020E94671165
:1043F000802F0E94701318C08091B402A82AA09246
:10440000B402F4CF802F0E943713AA2069F0A09441
:10441000005E083010F0811045C08091B502A822DE
:10442000A092B5020E946711EB2DE850FF0B349764
:1044300010F40E94CC18CC20A9F08091B20280FD2B
:1044400011C0F70112828595859585950E94F71216
:10445000C7010E94081F8091B202859585958595B8
:104460000E94B81285E0F701DE01119601900D92CD
:104470008A95E1F789819A810E9410129A81E981D7
:10448000F0E026E0929FE00DF11D11243CE3839FB4
:10449000E00DF11D1124EE0FFF1FE05FFD4E859131
:1044A0009491D8CC8091B402A822A092B402BACF41
:1044B000312F3F70932E107F103219F0929490EFAD
:1044C0009922882071F081E0881681F1DD20D9F1F0
:1044D000AA2091F1F701858180FF8ACF8F708583B3
:1044E0002BC0DD20B1F09091B602892D892BA1104F
:1044F00003C00E942D1398CFE1E0AE12FACF2091B5
:10450000FE0222FD91CF981709F48ECF8093B60258
:104510008BCFA11006C00E946111892D0E94221329
:1045200083CFF1E0AF1609F47FCFF5CFDD2031F076
:1045300025E02A1508F478CF892DDBCF34E03A1531
:1045400008F472CFEACFAA2041F3F9E38F128AC1AF
:104550002FEF37EE83E0215030408040E1F700C07C
:10456000000080C1812F86958695837061F081302F
:1045700009F05ACFC8019370D11002C090E080E0DA
:104580000E945A0F51CFC8019370D11002C090E021
:1045900080E00E94700F48CF812F837009F066C0C1
:1045A000D11042CF802F829586958770880F880F13
:1045B000602F6F70462E512C712C612C082E04C078
:1045C000440C551C661C771C0A94D2F740E050E05E
:1045D000BA0104FF0FC04FE050E060E070E004C09B
:1045E000440F551F661F771F8A95D2F74095509547
:1045F00060957095812F869586958370823019F12C
:10460000D8F40091E8021091E9022091EA02309179
:10461000EB02813069F04429552966297729CB01BD
:10462000BA0160237123822393230E941813FCCEC6
:10463000402A512A622A732ACB01BA0164297529BA
:1046400086299729F2CF442955296629772900918F
:10465000E8021091E9022091EA023091EB02CB01CD
:10466000BA016027712782279327DFCF8695DD2047
:1046700011F0812F8170882309F4D6CE802F829586
:1046800086958770880F880F602F6F70462E512C8B
:10469000712C612C082E04C0440C551C661C771C20
:1046A0000A94D2F740E050E0BA0104FF0FC04FE097
:1046B00050E060E070E004C0440F551F661F771F94
:1046C0008A95D2F74095509560957095812F869583
:1046D00086958370823019F1D8F400912D031091E2
:1046E0002E0320912F0330913003813069F044294B
:1046F000552966297729CB01BA01602371238223CA
:1047000093230E949C1290CE402A512A622A732A37
:10471000CB01BA016429752986299729F2CF44294A
:1047200055296629772900912D0310912E03209198
:104730002F0330913003CB01BA0160277127822704
:104740009327DFCF1F70DD2029F0812F0E94F71201
:10475000802FCFCE802F0E942213812F0E94B8126B
:1047600063CE802F92EF891609F454C0981578F023
:10477000E0EF8E1639F1F1EF8F1609F443C0DD201A
:1047800009F46BC0A11034CE812F8F7140C023EF8C
:10479000821609F444C034EF8312F1CFDD2009F40E
:1047A00051C01F71812F0E94F7128091FE0282FD7D
:1047B00007C0E8E01E9FC001112483608093B2020D
:1047C000812F25C0DD20C9F084E08A1508F42CCEA5
:1047D0001F7161E070E080E090E004C0660F771F19
:1047E000881F991F1A95D2F700912D0310912E035F
:1047F00020912F0330913003A0CF95E09A1508F453
:1048000013CEE6CF812F8F71DD2009F4A7CF0E9450
:10481000F7120ACE812F8F71DD20C9F39FCF60E0A0
:1048200070E0CB01DD2009F46CCF1F7161E070E016
:1048300080E090E004C0660F771F881F991F1A95CB
:10484000D2F75FCF81E00E94DB12F1E0FA1508F0A9
:10485000EBCD82E00E94DB12E7CDAA2039F089334C
:1048600009F476CE802F0E943713DECD812F8F7111
:1048700075CF85E0DE01119601900D928A95E1F7E2
:10488000F701228189819A812111FACA0E941012AE
:10489000082FFECA06311C45A9F5809151028111ED
:1048A00066CD89E2E6E4F2E02CE432E091918913EE
:1048B00003C0DF0111971C922E173F07B9F754CDA3
:1048C0000B352DE5120709F470CD58F401158CE570
:1048D000180709F44ECD0F3D1C45A1F40E94B11AF2
:1048E000B6CB0C35EDE51E0709F461CD0D351D4540
:1048F00049F48091FE0282FB882780F991E08927A4
:104900000E941C1BF701828110810181882309F418
:1049100050CD812F902F0E949E11D82E682F812F6D
:10492000902F0E943912E12FF0E026E0029FE00D67
:10493000F11D11243CE3D39EE00DF11D1124EE0F77
:10494000FF1FE05FFD4E859194910E94E40F8C0162
:10495000882EF701D280A580A2945FE0A5228091E5
:10496000B2028770A1F0CD2CDD2091F0812F807FE5
:10497000803421F080E2800F883048F082E00E948D
:10498000DB128091B2028770CC24C3948111C12CB8
:10499000B12EB2943FE0B322FBE0FB1508F444CD06
:1049A000EB2DF0E0E55CFB4C0C94A92E1F93CF930C
:1049B000DF9380917F02807FA9F480917C0288231D
:1049C00089F08091B102D091800260917A02709159
:1049D0007B02A0917D02B0917E02C62FC72316E014
:1049E000D81304C0DF91CF911F91089590E01097E4
:1049F00011F0CF3F19F401968770F2CF189F900104
:104A0000199F300D1124F901EF57FD4F41814713D4
:104A1000F2CF40814613EFCF42814111ECCF438169
:104A200054814A1B5B0B4436510528F780917F0265
:104A30008F70806180937F02F901EA57FD4F80817A
:104A40008F70806180838AE792E00E94081FDF9167
:104A5000CF911F910C949411AF92BF92CF92DF929D
:104A6000EF92FF920F931F93CF93DF93CDB7DEB7F3
:104A700061970FB6F894DEBF0FBECDBF8C0185E005
:104A8000F801DE011D9601900D928A95E1F7F8017B
:104A9000E2808AE7A82E82E0B82E60917D027091B4
:104AA0007E026115710509F422C190917A0240914C
:104AB0007B02892F84238F3F09F419C12081318122
:104AC000C380D480F0907C02F601E61BF70BFF2038
:104AD00009F4F4C080917F02582F507FE436F1052D
:104AE00008F0B7C0511177C0FE2C431321C09213B8
:104AF0001FC0E1101DC08F70806180937F02C501CF
:104B00000E94081F80917F02F80185838F2D619696
:104B10000FB6F894DEBF0FBECDBFDF91CF911F91CE
:104B20000F91FF90EF90DF90CF90BF90AF900895DE
:104B3000CD2829F0822F83238F3F09F0F3C080E036
:104B4000F82FF170DF2E80FF3CC08091B1024091C0
:104B5000800256E0841315C02D873E878D859E8583
:104B60000E94F511292F22952F702230F0F0243069
:104B700018F59F70F1F0F8019581907FD1F4D12C58
:104B80001EC090E0589FF001599FF00D1124EF577F
:104B9000FD4F6181361306C06081261303C0628118
:104BA000E6120FC001968770D5CF9F7011F0882351
:104BB00031F3805E883018F3C8010E94081FFD2C75
:104BC000A5CFEE2009F4A2CF80917F02816080936F
:104BD0007F02F12C9BCF431312C0921310C0E1103F
:104BE0000EC0F8018583C8010E94081F86E0F80105
:104BF000AAE7B2E001900D928A95E1F787CFC8014C
:104C00000E946712882309F1EE20F9F080917F025B
:104C1000803270F020917A0230917B0238872F83A6
:104C20001986DB86CA868C87CE0107960E94081FEC
:104C300086E0F801AAE7B2E001900D928A95E1F7CB
:104C40000E94D624FF24F39461CFC8010E94081F5C
:104C5000F9CF51110AC08AE792E00E94081F86E04E
:104C6000F50111928A95E9F7B4CF43130FC092135F
:104C70000DC0E1100BC0F8018583C8010E94081F18
:104C800086E0F50111928A95E9F740CFC8010E94AC
:104C900067128823D1F2EE20C1F280917F02803228
:104CA00038F220917A0230917B023A8329831B8269
:104CB000DD82CC828E83CE010196B8CFE436F10539
:104CC000F8F6FE2CEE2009F2431303C0921709F404
:104CD0008DCFC8010E9467128111AACF80917F02F7
:104CE000816080937F02C8010E94081F0FCFEE20D1
:104CF00009F4ABCFC8010E946712F82E882309F48B
:104D0000A4CF86E0F801AAE7B2E001900D928A955F
:104D1000E1F780917A0290917B020E94F5110E9446
:104D2000D624F4CE81E08E250BCF1F93CF93DF9353
:104D3000CDB7DEB767970FB6F894DEBF0FBECDBF15
:104D40004B8B5C8B6D8B7E8B8F8B61111092B402C1
:104D50001A8A198A85E0FE017396DE011D9601907C
:104D60000D928A95E1F786E0FE013D96DE011796E9
:104D700001900D928A95E1F7CE0107960E942C25AD
:104D8000882389F016E08091B10290918002891306
:104D900049C067960FB6F894DEBF0FBECDBFDF9156
:104DA000CF911F91089586E0FE013796DE0111969E
:104DB00001900D928A95E1F78A859B85892B11F3E5
:104DC0008F81988589238F3FE9F22091800230E01E
:104DD000C9010196877099274091B10248171906B9
:104DE00071F40E947614109280021092B10286E053
:104DF000EAE7F2E0DF011D928A95E9F7C3CF96E07A
:104E0000929FD001939FB00D1124AF57BD4FFE016B
:104E1000319601900D929A95E1F7809380020E945D
:104E20009411B0CF819FC00111248F579D4F0E94D4
:104E30002C25882309F4ADCF8091B10290E0019632
:104E4000877099278093B1029ECF1F921FB61F9241
:104E500011248F939F93AF93BF938091AD038111E2
:104E600013C08091AE039091AF03A091B003B091B5
:104E7000B1034196A11DB11D8093AE039093AF0382
:104E8000A093B003B093B103BF91AF919F918F9165
:104E90001F901FBE1F901895CDB7DEB72C970FB689
:104EA000F894DEBF0FBECDBF84B7877F84BF0FB637
:104EB000F894A895809160008861809360001092BA
:104EC00060000FBE80E890E00FB6F8948093610018
:104ED000909361000FBE85B7806885BF85B78068F5
:104EE00085BF86E89FE090934302809342020E9430
:104EF0008A0D0E94550E8091E20084608093E2004A
:104F000078948091C2038823A1F01091E9001F706A
:104F10009091EC00892F817090FD80E8182B109201
:104F2000E9008091E80083FD0E9481141F701093B6
:104F3000E90082E084BD93E095BD9AEF97BD809330
:104F40006E001092F9021092FA021092FB02109277
:104F5000FC020E94A918809346010E94A9188111A1
:104F60000E94952C809146018091460195E0811127
:104F700090E090930A0385E0891B809309030AE27D
:104F800012E0D8018D918D018F3F11F00E948A0FA0
:104F9000B2E00F321B07A9F704E312E0F801819198
:104FA0008F018F3F11F00E948A0FF2E00A331F0732
:104FB000A9F7EFEFF2E0ABE0B3E011921D9223E02E
:104FC000E930F207D1F790E080E00E94F831893EA5
:104FD0009E4F11F00E94B11A82E090E00E94F031E1
:104FE000809396030E94DC189093FE028093FD024A
:104FF00083E090E00E94F031682F70E090E080E064
:105000000E9418130E94A918811102C00E94982CB6
:105010000E94A9188111D0C082E08093910380E89A
:105020008093CF030E942D2B6DE070E08BE893E11D
:105030000E940314892BE9F58091910363E070E0ED
:1050400081FDBCC088E893E10E940314892B89F597
:105050006DE070E088E793E10E940314892B49F525
:105060000E94340F605A75418F4F9F4F6093A10388
:105070007093A2038093A3039093A403E8EDF3E05D
:1050800080E092E0DF019C011D9221503040E1F769
:10509000F093D905E093D8058FEF9FEF9093D70356
:1050A0008093D60381E08093A6038093A50310929A
:1050B000920387E491E09093AA038093A90358E1B7
:1050C000852E912C8091C20312E1853009F4AFC086
:1050D0000E94F71CD82E81110E94340FE7E9F3E0FB
:1050E000ABE0B3E010E000E0B02EED9081918E15C2
:1050F00009F4ACC08E25C12CFF24F394982F9F2176
:1051000009F49FC00E94A918882399F0C982BA8225
:10511000EF2081E009F480E08B830E94841C816091
:10512000782F9D838C8349815A816B818D810E9468
:105130009526F801E956FC4F8081F826F08280918F
:10514000A603882351F180919303909194030E94C8
:10515000751CC29708F091C02091D6033091D703F7
:105160002115310509F090C18091A5038823A9F08C
:105170000E94340F0091A1031091A2032091A30378
:105180003091A403601B710B820B930B6F3F7F4F19
:105190008F4F9F4710F40E943314D1100E944E1479
:1051A0000E94CC1890919503891709F48BCF0E9427
:1051B000CC188093950386CF80E02FCF85E893E1CC
:1051C00043CF8091C203843011F11092AD0330E4DB
:1051D0000FB6F894A895809260000FBE30936000DF
:1051E00083B7817F846083BF83B7816083BF7894F6
:1051F000889583B78E7F83BF0FB6F894A89580916A
:105200006000886180936000109260000FBE809102
:10521000C103882361F00E94F71CEBE0F3E0819169
:10522000811104C285E193E08E179F07C1F7809139
:10523000C203853009F4C5CF0E9476140E94CC18B1
:1052400047CFC394FF0C96E0C91258CF0F5F1F4F92
:105250000A30110509F048CF8FEF8E838F831886AF
:105260000E94841C8160782F9A8789874E815F8194
:1052700068858A850E94952662CF0E94841C90933F
:1052800094038093930388ED93E09093D9058093E2
:10529000D8050E94A918882309F462C080912D03C3
:1052A00090912E03A0912F03B0913003843091058B
:1052B000A105B10509F451C010F50097A105B1058C
:1052C00059F166E871E082309105A105B10531F12F
:1052D000BF93AF939F938F9381EA91E09F938F93B6
:1052E0001F9288E18F9385E193E09F938F930E94B3
:1052F0002E2F0FB6F894DEBF0FBECDBF13C088307F
:105300009105A105B10529F08E309105A105B105E2
:10531000F9F663E971E002C06AE671E085E193E0C5
:105320000E94272F85E193E00E94ED1781E00E9403
:10533000BB1781E393E00E94ED1781E00E94BB1749
:1053400089E493E00E94ED1781E00E94BB178091F1
:10535000A603882309F408CFFFCE69E771E0DECF0A
:1053600080916603882309F460C00E944E14609106
:1053700062037091630380916403909165030E94BE
:10538000180F693C71058105910560F00E94340F8A
:105390006093620370936303809364039093650347
:1053A0000E94C5130E94340F60935E0370935F03E5
:1053B000809360039093610388ED93E09093D90507
:1053C0008093D805809166031F928F9382EB91E0C2
:1053D0009F938F9387E693E09F938F930E945E2F16
:1053E00087E693E00E94ED170E94CC182091CF032E
:1053F00030E028523C4F3093D9052093D8050F90C8
:105400000F900F900F900F900F9008E913E181FF1C
:1054100002C000EA13E1F8018491882309F497CFD0
:105420000E943A170F5F1F4FF6CF60915E03709195
:105430005F0380916003909161030E94180F6136B1
:105440007A4E8105910518F00E943314B5CF609112
:1054500062037091630380916403909165030E94DD
:10546000180F693C71058105910508F4A5CF0E94CC
:10547000340F60936203709363038093640390938B
:1054800065030E94C51398CF8091920361E070E09C
:1054900081116ACE082F10E07B01082E02C0EE0CAD
:1054A000FF1C0A94E2F7A9014E215F21452B09F464
:1054B00047C09091910390FD45C08295880F8076FA
:1054C000809353019801369527953695279520931B
:1054D0005601815E809354011092570124E630E01A
:1054E00047E050E061E571E088E70E94DC2B892B02
:1054F00009F03ACEA80125E0440F551F2A95E1F79F
:105500008091910380FD2CC048525C4F04E610E06E
:1055100020E230E060E488E70E94032C892B09F048
:1055200023CE0E944E14E094F0948091D603909183
:10553000D703E822F922F092D703E092D60314CEE3
:105540008F5FA8CF880F880F880F80935301109228
:105550005601895F8093540183E080935701BECF49
:10556000E1E7F3E080E2DF011D928A95E9F7EEE3DF
:10557000F2E0FC87EB870AE312E092E4292E92E046
:10558000392EAB85BC852D91BC87AB87F801419046
:105590008F01440E552E511CC20188529C4F2C0184
:1055A000E22FF0E0EF58FC4F30E020E087E0682E7B
:1055B000621ACC24C394022E01C0CC0C0A94EAF7E0
:1055C000520190E0D5018D915D018C21662D691B02
:1055D0006770762E062E000C770BB82F01C0BB0F1C
:1055E0007A94EAF77B2E7195619571096770772738
:1055F00001C086956A95EAF7782A8081782A7082B8
:105600009F5F9830F9F62F5F3F4F31962830310574
:1056100069F6EB85FC852E163F0609F0B2CF04E64D
:1056200010E020E230E041E753E074CF20E129BDF3
:1056300019BD09B400FEFDCF8091D8008F7D809305
:10564000D8008091E00082608093E0008091E000CB
:1056500081FDFCCF0E947614EACD1092B9008CE057
:105660008093B80008959F92AF92BF92CF92DF923D
:10567000EF92FF920F931F93CF93DF93B82EEB011E
:105680000E94841C6C01EE24E394F12CC431D105FA
:1056900060F025E0E22EF12CCF3FDC0731F0CE01A7
:1056A00064E170E00E94562E7B0184EAA82E94E803
:1056B000992E1092BC00A092BC000E94841C8C0108
:1056C0008091BC0087FF0DC08091B900887F883031
:1056D00039F18091B900887F803111F10FEF1FEF10
:1056E00009C00E94841C801B910B8E159F0540F3FE
:1056F0000EEF1FEFCF3FDC07E1F2C6010E94751CE1
:105700008C179D07B0F2C801DF91CF911F910F91C7
:10571000FF90EF90DF90CF90BF90AF909F90089553
:10572000B092BB009092BC000E94841C8C018091BE
:10573000BC0087FF0AC08091B900887F883111F0D2
:10574000803461F610E000E0DECF0E94841C801BF4
:10575000910B8E159F0558F3CBCF0F931F93CF93CB
:10576000DF93EB018093BB0084E88093BC000E9430
:10577000841C8C018091BC0087FF11C02091B9006E
:10578000287F81E090E0283211F490E080E091954C
:1057900081959109DF91CF911F910F910895CF3F8E
:1057A000DC0741F30E94841C801B910B8C179D0722
:1057B00008F38EEF9FEFEECFCF92DF92EF92FF9242
:1057C0000F931F93CF93DF936B018A017901B90186
:1057D0000E94332BE6010C0D1D1DC017D10761F48B
:1057E00024E92093BC00DF91CF911F910F91FF908E
:1057F000EF90DF90CF90089597FDF2CFB701899198
:105800000E94AD2BEACFCF92DF92EF92FF920F93DF
:105810001F93CF93DF93C62F6A017901B8010E94CD
:10582000332B97FD0CC0B8018C2F0E94AD2BE601E5
:10583000EC0CFD1CCE15DF0511F097FF0CC024E920
:105840002093BC00DF91CF911F910F91FF90EF90BB
:10585000DF90CF900895B80189910E94AD2BEACFD7
:1058600084E98093BC0008958EE14A9B02C0815078
:10587000E1F74A9BFECF08955A9880E28A95F1F7A6
:105880005A9A0895FC013BE03A95F1F798E020E040
:1058900080E031E040E14A95F1F7880F4A9B02C071
:1058A0008160232742E04A95F1F7000040E14A95E4
:1058B000F1F7915079F790E19A95F1F799B132E0CB
:1058C0003A95F1F7000040E14A95F1F792FB9927EC
:1058D00090F992272081920F90830895EF92FF9282
:1058E0000F931F93CF93DF930F92CDB7DEB719823B
:1058F0008C017C01E60EF11C0E151F0561F481E0A0
:105900009981911180E00F90DF91CF911F910F91BC
:10591000FF90EF9008950E94342CCE0101960E94D2
:10592000422CF80181938F01E7CF529A5A9A089539
:1059300052985A9AEA9AE9E6F0E080818F7C808357
:1059400008956150770B91E001C0990F6A95EAF7CD
:1059500020E031E0911108C0222391F05A9A80E2B0
:105960008A95F1F75A980895492F482339F05A9AA1
:10597000232740E24A95F1F79695ECCF5A98F9CF54
:105980005A98EDCFFF920F931F93CF93DF93EC01C3
:105990008C01060F111DC017D10731F4DF91CF9193
:1059A0001F910F91FF900895F9900E943C2C68E0A0
:1059B0008F2D0E94A12CEFCF1F920F920FB60F9246
:1059C0001124EF92FF920F931F932F933F934F93C6
:1059D0005F936F937F938F939F93AF93BF93EF9357
:1059E000FF93CF93DF930F92CDB7DEB719820E945A
:1059F000342CCE0101960E94422CA82FA695A69584
:105A0000A695282F229525709A2F9570290F922FF1
:105A1000937026952695920F982797708981982BD9
:105A200009F075C0A83008F072C080E18A95F1F7DE
:105A30005A9A529AB2E0BA95F1F700C05A98EA2EF3
:105A4000F12CEAE0AE9FD0011124A050BF4F189670
:105A5000ED91FC9119973097B1F060912802709107
:105A6000290216962D913C911797260F371F1396F2
:105A70008D919C911497680F791F15964C911597ED
:105A800012968C9109958AE08E9DF0018F9DF00D04
:105A90001124E050FF4F6581662351F020912802C8
:105AA0003091290286819781820F931F0E94C22C18
:105AB0000E943C2CF0E1FA95F1F75A9852985A9AC4
:105AC00080E18A95F1F78AE08E9D80018F9D100D0F
:105AD000112400501F4FD80112966C911297662323
